:020000040800F2
:1000000088050020DD0100089D170008CF150008B5
:1000100099170008E9020008911D0008000000007F
:10002000000000000000000000000000A31700080E
:10003000ED02000800000000A1170008C917000821
:10004000F7010008F7010008F7010008F7010008B0
:10005000F7010008F7010008F7010008F7010008A0
:10006000F7010008F7010008F7010008F701000890
:10007000F7010008F7010008F7010008F701000880
:10008000F7010008F7010008F7010008F701000870
:10009000F7010008F7010008F7010008F701000860
:1000A000F7010008F7010008F7010008F701000850
:1000B000F7010008F7010008F7010008F701000840
:1000C000F7010008F7010008F7010008F701000830
:1000D000F70100083D1D0008591D0008751D0008A6
:1000E000F7010008F7010008F7010008F701000810
:1000F000F7010008F7010008F7010008F701000800
:10010000F7010008F7010008F7010008F7010008EF
:10011000F7010008F7010008F7010008F7010008DF
:10012000F7010008F7010008F7010008F7010008CF
:10013000F70100080000000000000000F7010008BF
:10014000F7010008F7010008F7010008F7010008AF
:10015000F7010008F7010008F7010008F70100089F
:10016000F7010008F7010008F7010008F70100088F
:10017000F7010008F7010008F7010008000000007F
:1001800000000000F701000800000000000000006F
:10019000F70100080000000000000000F70100085F
:1001A000000000000000000000000000F70100084F
:1001B000F7010008F7010008F7010008F70100083F
:1001C000F7010008DFF810D000F07CF80048004785
:1001D000CF1E0008AFF30080880500200648804746
:1001E00006480047FEE7FEE7FEE7FEE7FEE7FEE71C
:1001F000FEE7FEE7FEE7FEE791180008C5010008EC
:100200002DE9F05F0546002092469B46884606464B
:10021000814640241BE0284641464746224600F0DE
:1002200041F853465A46C01A914110D31146184618
:10023000224600F028F82D1A67EB01084F462246A7
:100240000120002100F01FF817EB00094E41201E8D
:10025000A4F10104DFDC484631462A464346BDE8A6
:10026000F09FD2B201E000F8012B491EFBD270478B
:100270000022F6E710B513460A4604461946FFF772
:10028000F0FF204610BD202A04DB203A00FA02F1DC
:10029000002070479140C2F1200320FA03F3194374
:1002A00090407047202A04DB203A21FA02F0002116
:1002B000704721FA02F3D040C2F120029140084376
:1002C00019467047064C074D06E0E06840F0010310
:1002D00094E8070098471034AC42F6D3FFF776FF56
:1002E0000C1F00082C1F000800BFFEE7704772B605
:1002F00000BFFEE770B50446A56D00F05DF9064647
:1003000094F83500022808D08020606500BF0020E6
:1003100084F8340000BF012070BD2068006820F020
:100320001600216808602068406920F0800021687C
:100330004861206C08B9A06C28B12068006820F0E2
:100340000800216808602068006820F0010021682A
:10035000086010E000F030F9801B05280BD9202040
:100360006065032084F8350000BF002084F8340065
:1003700000BF0320D0E72068006800F001000028DB
:10038000E8D194F85C103F208840A860012084F8F0
:10039000350000BF002084F8340000BF00BFBBE779
:1003A000014691F83500022803D0802048650120DD
:1003B0007047052081F835000868006820F00100CA
:1003C0000A6810600020F3E7F8B502460B460025E6
:1003D000002400200021D0E0012606FA01F51E6865
:1003E00006EA0504AC4274D11E7906F00306012E1C
:1003F00004D01E7906F00306022E13D190684F0038
:100400000326BE40B0434F00DE68BE4030439060DC
:10041000506801268E40B0431E79C6F300168E4008
:10042000304350601E7906F00306032E09D0D068D1
:100430004F000326BE40B0434F009E68BE4030438D
:10044000D0601E7906F00306022E13D1CF0802F108
:10045000200656F827004E07F70E0F26BE40B04381
:100460004F07FF0E1E69BE403043CF0802F1200641
:1004700046F8270010684F000326BE40B0431E799F
:1004800006F003064F00BE40304310605E6806F47D
:100490004036002E70D000BF00260096394E3668D8
:1004A00046F48046374F3E603E46366806F4804646
:1004B000009600BF00BF344E8F0856F827008E0705
:1004C000370F0F26BE40B043304EB24202D1002655
:1004D0001FE051E02E4EB24201D1012619E02D4E0F
:1004E000B24201D1022614E02B4EB24201D10326C2
:1004F0000FE02A4EB24201D104260AE0284EB24251
:1005000001D1052605E0274EB24201D1062600E0C2
:1005100007268F073F0FBE4030431B4E8F0846F81B
:100520002700214E3068A0435E6806F4803606B18D
:1005300020431D4E3060361D3068A0435E6806F4CF
:10054000003606B12043184E361D3060361D306827
:10055000A0435E6806F4801606B12043124E0836AA
:100560003060361D3068A0435E6806F4001606B1A0
:1005700020430D4E0C363060491C1029FFF42CAF7F
:10058000F8BD000044380240083801400000024035
:100590000004024000080240000C0240001002402B
:1005A0000014024000180240003C01400AB1816181
:1005B00001E00B0483617047014800687047000048
:1005C0001400002070B504460CB9012070BD4CF633
:1005D000CC402168086045F2555021680860D4E994
:1005E000001048602168A0688860FFF7E5FF0546B5
:1005F0000BE0FFF7E1FF401B312806D92068C068F7
:1006000000F0030008B10320E0E72068C06800F0B4
:1006100003000028EDD14AF6AA20216808600020D6
:10062000D4E701464AF6AA200A6810600020704705
:100630000348006803490978084401490860704785
:10064000140000201C00002010B50D48006840F484
:1006500000700B4908600846006840F4806008603C
:100660000846006840F480700860032000F0A6F897
:10067000002000F007F800F02BF8002010BD00006B
:10068000003C024070B504460E4800784FF47A7181
:10069000B1FBF0F00C490968B1FBF0F5284600F019
:1006A00089FC08B1012070BD102C07D20022214620
:1006B000501E00F045F80548046001E00120F2E713
:1006C0000020F0E71C00002020000020180000207F
:1006D00008B500BF002000901048006840F480403A
:1006E0000E4908600846006800F48040009000BF92
:1006F00000BF00BF00200090081F006840F080503D
:10070000091F08600846006800F08050009000BF94
:1007100000BF072000F052F808BD00004438024036
:1007200001460846002809DB00F01F0301229A4019
:1007300043099B0003F1E023C3F8002100BF704789
:100740002DE9F05F80460D461646002701F094FB28
:10075000074639462A46334601F00700C0F1070A2A
:10076000BAF1040F02D94FF0040A01E0C0F1070A00
:10077000D14600F1040ABAF1070F02D24FF0000A85
:1007800001E0A0F1030AD4464FF0010A0AFA09FA7F
:10079000AAF1010A0AEA020A0AFA0CFA4FF0010B5E
:1007A0000BFA0CFBABF1010B0BEA030B4AEA0B044F
:1007B0002146404601F068FBBDE8F09F00BF00F015
:1007C0000702064B19684FF6FF031940044B0B4311
:1007D00043EA0221014B196000BF70470CED00E0B5
:1007E0000000FA0570B504460D460CB9012070BD35
:1007F0005848006800F00F00A84209D255490D7012
:100800000846006800F00F00A84201D00120EEE782
:10081000207800F0020002281DD1207800F00400AA
:10082000042805D14C48006840F4E0504A4908606B
:10083000207800F00800082805D14748006840F4F7
:100840006040454908604448006820F0F000A16815
:10085000084341490860207800F00100A8B36068AF
:10086000012807D13C4808380068C0F34040B8B9B7
:100870000120BCE76068022802D06068032807D125
:10088000354808380068C0F3406048B90120AEE739
:10089000314808380068C0F3400008B90120A6E7D5
:1008A0002D48006820F00300616808432A49086069
:1008B000FFF782FE064609E0FFF77EFE801B41F24D
:1008C0008831884202D9032091E707E02248006876
:1008D00000F00C006168B0EB810FEDD11D4800689D
:1008E00000F00F00A84209D91A490D7008460068A7
:1008F00000F00F00A84201D0012078E7207800F036
:100900000400042807D11448006820F4E050E1688E
:10091000084311490860207800F00800082808D131
:100920000D48006820F46040216940EAC1000A498E
:10093000086000F03FF808490968C1F30311074A4D
:10094000515CC8400649086006480068FFF79AFEF7
:1009500000204CE7003C024008380240F21E00082C
:1009600020000020180000200148006870470000A7
:100970002000002000B5FFF7F7FF04490968C1F324
:100980008221034A515CC84000BD00000838024083
:10099000021F000800B5FFF7E7FF04490968C1F32B
:1009A0004231034A515CC84000BD00000838024093
:1009B000021F00082DE9F047002400250026A1466B
:1009C000A2463F48006800F00C0030B1042807D070
:1009D000082808D00C286BD138E0DFF8E8A06AE0DE
:1009E000DFF8E4A067E03648001F006800F03F042D
:1009F0003348001F006800F4800078B13248304965
:100A0000091F0968C1F38811A0FB01700146224645
:100A100000233846FFF7F4FB05460DE02948284936
:100A2000091F0968C1F38811A0FB01712246002348
:100A30003846FFF7E5FB05462148001F0068C0F374
:100A40000140401C4600B5FBF6FA34E01C48001F8C
:100A5000006800F03F041A48001F006800F480009E
:100A600078B119481649091F0968C1F38811A0FB1C
:100A700001700146224600233846FFF7C1FB0546B8
:100A80000EE010480E49091F0968C1F38811A0FB48
:100A900001700146224600233846FFF7B1FB0546A8
:100AA0000748001F0068C0F30279B5FBF9FA02E0BD
:100AB000DFF810A000BF00BF5046BDE8F08700007F
:100AC000083802400024F40000127A00F8B5044609
:100AD0000CB90120F8BD207800F0010000286FD08B
:100AE000FE48006800F00C0004281BD0FB4800689A
:100AF00000F00C00082807D1F848001F006800F437
:100B00008000B0F5800F0DD0F448006800F00C00B4
:100B10000C2813D1F148001F006800F48000B0F5E4
:100B2000800F0BD1ED4808380068C0F34040002822
:100B300059D06068002856D10120CBE700BF60681B
:100B4000B0F5803F08D1E5480838006840F48030AF
:100B5000E249083908601EE06068B0F5A02F0DD1A9
:100B6000DE480838006840F48020DC490839086015
:100B70000846006840F4803008600CE0D748083828
:100B8000006820F48030D5490839086008460068BC
:100B900020F48020086000BF606890B1FFF70CFD72
:100BA000054606E0FFF708FD401B642801D9032035
:100BB00090E7CA4808380068C0F340400028F1D0E8
:100BC00011E0FFF7F9FC054606E0FFF7F5FC401BD6
:100BD000642801D903207DE7C04808380068C0F3C5
:100BE00040400028F1D1207800F0020002286BD1AB
:100BF000BA48006800F00C00B8B1B848006800F0CE
:100C00000C00082805D1B548001F006800F48000DA
:100C100058B1B248006800F00C000C281CD1AF4855
:100C2000001F006800F48000B0B9AC4808380068C4
:100C3000C0F3400020B1E068012801D0012049E75D
:100C4000A6480838006820F0F800216940EAC10091
:100C5000A2490839086037E0E06800B30120A049E4
:100C60000860FFF7A9FC054606E0FFF7A5FC401B5E
:100C7000022801D903202DE7984808380068C0F3FE
:100C800040000028F1D095480838006820F0F800AE
:100C9000216940EAC10091490839086014E0002048
:100CA0008F490860FFF788FC054606E0FFF784FCE3
:100CB000401B022801D903200CE788480838006847
:100CC000C0F340000028F1D1207800F00800082887
:100CD0002CD16069A8B1012082490860FFF76CFC43
:100CE000054606E0FFF768FC401B022801D90320F7
:100CF000F0E67A486C300068C0F340000028F1D07C
:100D000014E0002077490860FFF756FC054606E02E
:100D1000FFF752FC401B022801D90320DAE66F4896
:100D20006C300068C0F340000028F1D1207800F05A
:100D30000400042870D1002768483830006800F0AB
:100D4000805090B900BF002000906448383000689F
:100D500040F080506149383108600846006800F072
:100D60008050009000BF00BF01275F48006800F47A
:100D70008070B0B95C48006840F480705A490860DF
:100D8000FFF71AFC054606E0FFF716FC401B022899
:100D900001D903209EE65448006800F480700028C2
:100DA000F2D000BFA068012808D14C486830006824
:100DB00040F001004949683108601DE0A06805283D
:100DC0000DD146486830006840F00400434968315E
:100DD00008600846006840F0010008600CE03F48E9
:100DE0006830006820F001003C496831086008461E
:100DF000006820F00400086000BFA068A8B1FFF7F9
:100E0000DBFB054609E0FFF7D7FB401B41F28831C9
:100E1000884202D903205DE626E030486830006849
:100E2000C0F340000028EED013E0FFF7C5FB0546F5
:100E300008E0FFF7C1FB401B41F28831884201D92D
:100E4000032047E6254868300068C0F340000028CA
:100E5000EFD1012F07D121483830006820F08050B1
:100E60001E493831086000BFA069002851D01B48D6
:100E7000006800F00C00082861D0A069022849D160
:100E8000002017490866FFF797FB054606E0FFF7C5
:100E900093FB401B022801D903201BE60F480838AA
:100EA0000068C0F340600028F1D1D4E9070108438D
:100EB000616A40EA81110122A06AC2EB500041EA56
:100EC00000412C20005D41EA00613020005D41EAD4
:100ED00000700249091F0860012007E0083802403D
:100EE00000004742800E4742007000402F490866CC
:100EF000FFF762FB054606E0FFF75EFB401B02289A
:100F000001D90320E6E52A480068C0F340600028C4
:100F1000F2D048E0002025490866FFF74DFB054662
:100F200006E0FFF749FB401B022801D90320D1E569
:100F30001F480068C0F340600028F2D133E0A06988
:100F4000012800D1C6E51A48001D0668A0690128DD
:100F500027D006F48001E069814222D106F03F01EA
:100F6000206A81421DD147F6C0703040616AB0EB03
:100F7000811F16D106F440310122A06AC2EB500055
:100F8000B1EB004F0DD106F070612C20005DB1EB8C
:100F9000006F06D106F0E0413020005DB1EB007F2C
:100FA00001D0012096E5002094E5000000004742B2
:100FB0000038024070B504462546681EB0F1807FB7
:100FC00001D301200FE0681E4FF0E02148610F219E
:100FD0004FF0FF3000F058FF00204FF0E021886113
:100FE00007200861002070BD704770472DE9F84F59
:100FF0000446206805682068C668206847694FF085
:101000000009CA4605F00F09B9F1000F0AD105F031
:10101000200038B106F0200020B1204600F0A8FCE6
:10102000BDE8F88FB9F1000F7CD007F0010018B9C6
:1010300006F49070002875D005F0010030B106F478
:10104000807018B1206C40F00100206405F00400AD
:1010500030B107F0010018B1206C40F002002064AC
:1010600005F0020030B107F0010018B1206C40F02B
:101070000400206405F0080048B106F0200010B913
:1010800007F0010018B1206C40F008002064206CCB
:10109000002846D005F0200028B106F0200010B14D
:1010A000204600F065FC20684069C0F3801A206C7F
:1010B00000F0080010B9BAF1000F2DD0204600F062
:1010C00011FC2068406900F04000402820D100BF9A
:1010D00000BF2168143151E8001F21F04000216851
:1010E000143141E80002002AF3D100BFA06B50B1D7
:1010F0007548A16B0865A06BFFF752F988B1A06B2A
:10110000016D88470DE02046FFF76FFF09E009E019
:101110002046FFF76AFF04E02046FFF766FF002045
:1011200020647DE7206B012876D105F010000028AF
:1011300072D006F010000028FAD000BF0020009006
:1011400020680068009020684068009000BF00BFE1
:101150002068406900F0400040285ED1A06B006824
:1011600040681FFA80F8B8F1000F54D0A08D4045B8
:1011700051DDA4F82E80A06BC069B0F5807F43D00C
:1011800000BF00BF21680C3151E8001F21F48070BE
:1011900021680C3141E80002002AF3D100BF00BFF2
:1011A00000BF2168143151E8001F21F001002168BF
:1011B000143141E80002002AF3D100BF00BF00BF94
:1011C0002168143151E8001F21F0400021681431DA
:1011D00041E80002002AF3D100BF202084F83E003D
:1011E0000020206300BF00BF21680C3151E8001FC0
:1011F00021F0100021680C3141E80002002AF3D1EF
:1012000000BFA06BFFF776F8A08DE28D801A81B247
:101210002046FFF7E9FE03E740E0A08DE18D401A8C
:101220001FFA80F8E08DC0B3B8F1000F35D000BFD1
:1012300000BF21680C3151E8001F21F49070216833
:101240000C3141E80002002AF3D100BF00BF00BF0B
:101250002168143151E8001F21F001002168143188
:1012600041E80002002AF3D100BF202084F83E00AC
:101270000020206300BF00BF21680C3151E8001F2F
:1012800021F0100021680C3141E80002002AF3D15E
:1012900000BF41462046FFF7A7FEC1E605F08000EB
:1012A00030B106F0800018B1204600F016FDB7E618
:1012B00005F0400030B106F0400018B1204600F0C3
:1012C00047FBADE600BFABE6D118000810B50446F9
:1012D0000CB9012010BDA06900B100E000BF94F876
:1012E0003D0028B9002084F83C00204600F028F892
:1012F000242084F83D002068C06820F40050216854
:10130000C860204600F0B0FB2068006920F49040DF
:10131000216808612068406920F02A00216848613E
:101320002068C06840F400502168C8600020206434
:10133000202084F83D0084F83E000020CAE7000029
:1013400010B586B00446142101A8FEF791FF6D493F
:101350002068884239D100BF002000906A480068A8
:1013600040F01000684908600846006800F010006E
:10137000009000BF00BF00BF0020009062481438FA
:10138000006840F0010060491439086008460068B0
:1013900000F00100009000BF00BF4FF4C06001905A
:1013A0000220029000200390032004900720059063
:1013B00001A95648FFF708F8002211462520FFF73B
:1013C000BFF92520FFF7ACF99AE05149206888421F
:1013D0003AD100BF002000904B48001F006840F445
:1013E00000304949091F08600846006800F40030D1
:1013F000009000BF00BF00BF00200090424814389A
:10140000006840F00100404914390860084600684F
:1014100000F00100009000BF00BF0C2001900220EE
:10142000029000200390032004900720059001A95A
:101430003648FEF7C9FF002211462620FFF780F943
:101440002620FFF76DF95BE032492068884257D1CA
:1014500000BF002000902C48001F006840F480204E
:101460002949091F08600846006800F480200090A0
:1014700000BF00BF00BF0020009023481438006860
:1014800040F004002049143908600846006800F064
:101490000400009000BF00BF00BF0020009008467D
:1014A000006840F0020008600846006800F0020092
:1014B000009000BF00BF2020019002200290002079
:1014C0000390032004900720059001A91248FEF71D
:1014D0007BFF4FF480600190022002900020039077
:1014E000032004900720059001A90C48FEF76CFF2B
:1014F000002211462720FFF723F92720FFF710F9D4
:1015000006B010BD00100140443802400000024007
:10151000004400400048004000080240000402402F
:1015200070B504460D46164694F83E00202816D1A4
:1015300005B10EB9012070BD00BF94F83C00012830
:1015400001D10220F7E7012084F83C0000BF002011
:10155000206332462946204600F09CFBEBE7022040
:10156000E9E7000010B504461248844208D100F0B3
:1015700053FC114890F82800401C0F4981F82800BE
:101580000E48844209D100F059FC0D4890F828001B
:10159000401C0B4981F828000BE00A48844208D11E
:1015A00000F058FC084890F82800401C064981F8D3
:1015B000280010BD30000020080100207400002029
:1015C00032010020B80000205C010020704700BFFD
:1015D000FEE7000000B587B0142102A8FEF748FE20
:1015E00000BF002001903448006840F004003249F8
:1015F00008600846006800F00400019000BF00BFCA
:1016000000BF002001900846006840F0800008609C
:101610000846006800F08000019000BF00BF00BFD6
:10162000002001900846006840F00100086008466C
:10163000006800F00100019000BF00BF00BF002063
:1016400001900846006840F0020008600846006803
:1016500000F00200019000BF00BF002220211748C7
:10166000FEF7A4FF002210211548FEF79FFF4FF45C
:10167000005002904FF4041003900020049002A93F
:101680001048FEF7A1FE20200290012003900020C8
:101690000490059002A90948FEF796FE10200290DA
:1016A0000120039000200490059002A90448FEF751
:1016B0008BFE07B000BD0000303802400000024041
:1016C000000402400008024010B5074807490860BE
:1016D0000020486040F6FF7104488160FEF772FF09
:1016E00008B1FEF704FE10BD0030004024000020C9
:1016F00010B50B480B4908604FF4E13048600021F9
:1017000008488160C16001610C2141610021816153
:10171000C161FFF7DBFD08B1FEF7E9FD10BD000078
:10172000001001403000002010B50B480B49086044
:101730004FF4E1304860002108488160C1600161D8
:101740000C21416100218161C161FFF7BFFD08B13A
:10175000FEF7CDFD10BD00000044004074000020E5
:1017600010B50B480B4908604FF4E1304860002188
:1017700008488160C16001610C21416100218161E3
:10178000C161FFF7A3FD08B1FEF7B1FD10BD000078
:1017900000480040B800002000BFFEE700BFFEE7A1
:1017A0007047704700F0F6FA00F048FB07E0044885
:1017B0000078401C024908700248FEF732FFF6E745
:1017C000100000202400002010B5FEF731FF10BDEE
:1017D00000B593B0342106A8FEF74AFD142101A8F4
:1017E000FEF746FD00BF002000902748006840F04B
:1017F0008050254908600846006800F0805000903D
:1018000000BF00BF00BF002000902048006820F407
:10181000404040F480401D4908600846006800F4DC
:101820004040009000BF00BF0A20069001200990B0
:1018300010200A9001200B9002200C9000210D91A5
:1018400010210E914FF4A8710F91042110910221E3
:101850001191129106A8FFF739F908B1FEF747FD7B
:101860000F20019002200290002003904FF480503E
:10187000049000200590022101A8FEF7B3FF08B1F3
:10188000FEF735FD13B000BD403802400070004047
:101890000348006840F47000014908607047000088
:1018A00088ED00E0FF2007490870FFF77BFF07E0A5
:1018B00005480078401C044908700448FEF7B1FE52
:1018C000F6E70000010000200000002024000020B6
:1018D00070B50546AC6B0020E085E0842046FFF73C
:1018E00084FB70BD00BF00BF02680C3252E8002FBD
:1018F00022F4907102680C3242E80013002BF3D1FD
:1019000000BF00BF00BF0268143252E8002F22F06F
:1019100001010268143242E80013002BF3D100BF2A
:10192000016B01290ED100BF00BF02680C3252E8E2
:10193000002F22F0100102680C3242E80013002B45
:10194000F3D100BF202180F83E10002101637047D1
:1019500010B504462068C06820F040002168C860C7
:10196000202084F83D002046FFF730FE002010BD07
:10197000F8B5044694F83E00222873D1A068B0F56B
:10198000805F0CD1206950B90025A66A20684068A4
:10199000C0F308003080A06A801CA06215E0A56A30
:1019A0000026A068B0F5805F03D0A06828B9206940
:1019B00018B920684068287004E02068406800F08A
:1019C0007F002870A06A401CA062E08D401E80B29B
:1019D000E085002844D12068C06820F020002168FC
:1019E000C8602068C06820F480702168C8602068E2
:1019F000406920F0010021684861202084F83E0001
:101A0000206B012826D10020206300BF00BF216881
:101A10000C3151E8001F21F0100021680C3141E821
:101A20000002002AF3D100BF2068006800F0100017
:101A300010280AD100BF00200090206800680090A4
:101A400020684068009000BF00BFA18D2046FFF7CE
:101A5000CBFA02E02046FFF785FD0020F8BD01E04B
:101A60000020FBE70220F9E72DE9F84F0446206843
:101A7000006920F44050E168084321680861216949
:101A8000A068084361690843E16908430090206841
:101A9000C06849F20C618843009908432168C86016
:101AA0002068406920F44070A169084321684861BA
:101AB00076492068884203D075492068884203D15E
:101AC000FEF768FF814602E0FEF754FF8146E069B9
:101AD000B0F5004F6CD102206168A0FB01500346B5
:101AE0001920A9FB007001462A463846FEF788FBFC
:101AF0006421B0FBF1F04FEA001A02206168A0FBFC
:101B000001510B461920A9FB00712A463846FEF701
:101B100077FB834602206168A0FB01500346192031
:101B2000A9FB00712A463846FEF76AFB6421B0FB28
:101B3000F1F000EBC00101EB0010ABEB80003221B3
:101B400001EBC0006421B0FBF1F000F0F8000AEBFB
:101B5000400A02206168A0FB015003461920A9FB3E
:101B6000007001462A463846FEF74AFB83460220AB
:101B70006168A0FB015003461920A9FB00712A46A9
:101B80003846FEF73DFB6421B0FBF1F000EBC001ED
:101B900001EB0010ABEB8000322101EBC0006421AF
:101BA000B0FBF1F000F007005044216888606AE063
:101BB00004206168A0FB015003461920A9FB0070B6
:101BC00001462A463846FEF71BFB82460420616820
:101BD000A0FB015003461920A9FB007001462A46CC
:101BE0003846FEF70DFB6421B0FBF1F000EBC001BD
:101BF00001EB0010AAEB8000322101EB0010642100
:101C0000B0FBF1F000F0F00A04206168A0FB017065
:101C100003461920A9FB00513A462846FEF7F0FA80
:101C20006421B0FBF1F00AEB001A04206168A0FB0C
:101C300001510B461920A9FB00712A463846FEF7D0
:101C4000DFFA834604206168A0FB01500346192097
:101C5000A9FB007001462A463846FEF7D1FA6421F6
:101C6000B0FBF1F000EBC00101EB0010ABEB80002A
:101C7000322101EB00106421B0FBF1F000F00F0005
:101C8000504421688860BDE8F88F000000100140D2
:101C90000014014010B5034699629A85DA85002048
:101CA0001864222083F83E0000BF002083F83C0027
:101CB00000BF1868C06840F480701C68E060186855
:101CC000406940F001001C6860611868C06840F01D
:101CD00020001C68E060002010BD014691F83D0026
:101CE000212828D18868B0F5805F0BD1086948B9F0
:101CF0000A6A1088C0F308000B685860086A801CE4
:101D0000086205E00B6A581C086218780B68586076
:101D1000C88C401E80B2C88458B90868C06820F0DA
:101D200080000B68D8600868C06840F040000B680D
:101D3000D860002070470220FCE7000010B504487E
:101D40000068401C024908600248FFF74FF910BDC7
:101D5000FC0000203000002010B504484068401C02
:101D6000024948600248FFF741F910BDFC0000201D
:101D70007400002010B504488068401C0249886047
:101D80000248FFF733F910BDFC000020B800002026
:101D900000BFFEE702201D49087503211B4841755D
:101DA000002181750121C17500210176417681767E
:101DB0000121C176932101779421417702201449B2
:101DC0000875032112484175002181750121C175F3
:101DD00000210176417681760121C1769321017738
:101DE0009421417731200B4908753221094841750A
:101DF000332181753421C175352101763621417633
:101E0000372181763821C176704700000801002013
:101E1000320100205C01002010B50022102104488E
:101E2000FEF7C4FB082203490348FFF779FB10BD06
:101E300000040240080100203000002010B50822F4
:101E400002490348FFF76CFB10BD0000320100207F
:101E50007400002010B5002210210448FEF7A6FBF4
:101E6000082203490348FFF75BFB10BD0004024052
:101E70005C010020B800002002480068C0F3022086
:101E8000704700000CED00E010B5002804DB0A07E5
:101E9000130E054A135406E00A07140E034A00F015
:101EA0000F031B1FD45410BD00E400E018ED00E048
:101EB00002E008C8121F08C1002AFAD17047704713
:101EC000002001E001C1121F002AFBD17047FEF77C
:101ED000BBFBFFF77DFCFFF77DFBFFF7F5FBFFF793
:101EE00007FCFFF721FCFFF73BFCFFF7DBFC00BF23
:101EF000FEE70000000000000000010203040607E6
:101F00000809000000000102030400002C1F000863
:101F10000000002024000000B01E0008501F000830
:101F20002400002064050000C01E0008000000001E
:101F300000000000000000000000000000000000A1
:101F40000000000010000000010000000024F40068
:04000005080001C529
:00000001FF
